:100000000C942A000C943F000C943F000C943F0089
:100010000C943F000C943F000C943F000C943F0064
:100020000C943F000C943F000C943F000C943F0054
:100030000C943F000C943F000C943F000C943F0044
:100040000C943F000C943F000C943F000C943F0034
:100050000C943F0011241FBECFE5D8E0DEBFCDBF1A
:1000600010E0A0E6B0E0E2E9F2E002C005900D92F7
:10007000A636B107D9F70E943E010C9447010C94B3
:100080000000613029F4E82FF0E08FEF81830895BC
:10009000E82FF0E011820895413069F4E82FF0E094
:1000A000218181E090E002C0880F991F6A95E2F7F4
:1000B000822B81830895E82FF0E0218181E090E098
:1000C00002C0880F991F6A95E2F780958223818389
:1000D0000895E82FF0E0828121E030E002C0220F95
:1000E000331F6A95E2F7282B22830895E82FF0E06A
:1000F000828121E030E002C0220F331F6A95E2F7CF
:100100002095282322830895E82FF0E06283089544
:10011000CF93C82F60E083E30E9476006C2F607F4E
:1001200080E30E94840061E083E30E94690082E032
:100130008A95F1F700C061E083E30E94760087ECC6
:1001400090E00197F1F700C000006C2F6295607F8E
:1001500080E30E94840061E083E30E94690092E0F2
:100160009A95F1F700C061E083E30E94760087EC86
:1001700090E00197F1F700C00000CF91089561E091
:1001800080E30E94410041E060E083E30E944C0074
:1001900041E061E083E30E944C0060E080E30E9464
:1001A000840061E083E30E9476008FE99FE001977D
:1001B000F1F700C0000083E30E94880082E30E9400
:1001C000880088E20E9488008EE00E94880081E01A
:1001D0000E9488008FE99FE00197F1F700C00000BE
:1001E00086E00E9488000895CF93C82F60E083E3E3
:1001F0000E9469006C2F607F80E30E94840061E0B0
:1002000083E30E94690082E08A95F1F700C061E013
:1002100083E30E94760087EC90E00197F1F700C03D
:1002200000006C2F6295607F80E30E94840061E093
:1002300083E30E94690092E09A95F1F700C061E0C3
:1002400083E30E94760087EC90E00197F1F700C00D
:100250000000CF9108950F931F93CF938C01C0E0BE
:1002600003C00E94F400CF5FF801EC0FF11D808104
:100270008111F7CFCF911F910F9108950E94BF0078
:1002800080E690E00E942B0180E090E00895F894D1
:02029000FFCF9E
:060292004D6F686162007F
:00000001FF
